:100000000C946B000C9493000C9493000C94E20AF3
:100010000C94E20A0C94E20A0C9493000C94930062
:100020000C9493000C9493000C9493000C94930004
:100030000C9493000C9493000C9493000C949300F4
:100040000C94A90E0C9493000C9493000C949300C0
:100050000C9493000C9493000C9493000C949300D4
:100060000C94A60C0C949300AA099B09AE09B30941
:10007000C209C709D60900000008000201000003F8
:100080000407000000000000000001020408102026
:10009000408001020408102001020408102004041A
:1000A0000404040404040202020202020303030320
:1000B00003030000000023002600290000000000C8
:1000C000250028002B0000000000240027002A0043
:1000D000DE076B0EEF0711241FBECFEFD8E0DEBFA7
:1000E000CDBF12E0A0E0B1E0E0E9F3E202C005908C
:1000F0000D92A038B107D9F723E0A0E8B2E001C023
:100100001D92A13DB207E1F710E0CAE6D0E004C0BD
:100110002197FE010E948D10C836D107C9F70E94B1
:10012000700E0C94BB110C940000CF93DF93EC0184
:1001300089859A850E942B118E819F8197FD05C02C
:1001400060E0DF91CF910C94B80FDF91CF910895CB
:10015000CF93DF93EC018E819F8197FD07C061E013
:100160000E94B80F60E08E810E94F40F81E08983C5
:10017000DF91CF910895EF92FF920F931F93CF934A
:10018000DF93EC017B0189859A850E942B119E8566
:100190008B85981719F084E090E002C083E090E02E
:1001A0008E9D80018F9D100D9E9D100D11241D832D
:1001B0000C83C8010E9493109A878987009741F0A9
:1001C000A80160E070E00E94B411FB82EA8204C0E2
:1001D0001D821C821B821A82DF91CF911F910F9189
:1001E000FF90EF900895FC0131E096858385981388
:1001F00030E0CB0126E0969587952A95E1F7282FE8
:1002000023702687CB0144E0969587954A95E1F7C0
:1002100083708387AB0156954795569547954370F4
:100220004487962F9370958791E06F3F710511F089
:1002300008F090E0908341855285452B51F091E084
:10024000281390E0391729F062817381CF010C9453
:10025000BB000895CF92DF92EF92FF920F931F930E
:10026000CF93DF93CDB7DEB729970FB6F894DEBFF3
:100270000FBECDBF8C01DC0119968D919C911A9710
:10028000892B09F496C1F801C784D088E188F288E7
:100290000E94F30E6C157D058E059F0548F40E94A3
:1002A000F30ED8011F966D937D938D939C93529777
:1002B0000E94F30EF801C784D088E188F288DC013F
:1002C000CB018C199D09AE09BF098C329140A10563
:1002D000B105C8F2F894D80114968D919C911597A8
:1002E0009A83898319960D90BC91A02D7D01EFEF23
:1002F000EE1AFE0A8C918987D8018C9153960D9045
:10030000BC91A02D882309F41AC11D82AB32B1051E
:1003100009F059C09BB1F8018589982B98879BB14A
:10032000809589238F838F818E83898587FF02C083
:1003300088858E8358856F8149853E812D8189818D
:100340009A81D7015BB9262F3BB900C046FD252F06
:100350006BB900C05BB9362F2BB900C045FD352FF6
:100360006BB900C05BB9262F3BB900C044FD252FF7
:100370006BB900C05BB9362F2BB900C043FD352FD8
:100380006BB900C05BB9262F3BB900C042FD252FD9
:100390006BB900C05BB9362F2BB900C041FD352FBA
:1003A0006BB900C05BB9262F3BB900C040FD252FBB
:1003B0006BB901975BB9362F2BB94D9147FD352F9E
:1003C0006BB901F6B8C0A532B10509F059C095B1B5
:1003D000F8018589982B988795B1809589238F831B
:1003E0008F818E83898587FF02C088858E8358859B
:1003F0006F8149853E812D8189819A81D70155B9C7
:10040000262F35B900C046FD252F65B900C055B966
:10041000362F25B900C045FD352F65B900C055B947
:10042000262F35B900C044FD252F65B900C055B948
:10043000362F25B900C043FD352F65B900C055B929
:10044000262F35B900C042FD252F65B900C055B92A
:10045000362F25B900C041FD352F65B900C055B90B
:10046000262F35B900C040FD252F65B9019755B934
:10047000362F25B94D9147FD352F65B901F65BC083
:10048000989709F08CC098B1F8018589982B9887C6
:1004900098B1809589238F838F818E83898587FF8B
:1004A00002C088858E8358856F8149853E812D8164
:1004B00089819A81D70158B9262F38B900C046FDE5
:1004C000252F68B900C058B9362F28B900C045FD9E
:1004D000352F68B900C058B9262F38B900C044FD7F
:1004E000252F68B900C058B9362F28B900C043FD80
:1004F000352F68B900C058B9262F38B900C042FD61
:10050000252F68B900C058B9362F28B900C041FD61
:10051000352F68B900C058B9262F38B900C040FD42
:10052000252F68B9019758B9362F28B94D9147FD45
:10053000352F68B901F649873E832D832EC09C91E3
:10054000F8018589982B98879C91809589238F83C2
:100550008F818C8388E08B8358856F8149853B81AF
:100560002C8189819A81F7015C9347FD252F2C937B
:10057000262F3A9531F0441F6C9300C000C000C094
:10058000F3CF6C93000038E04191019769F7F801CF
:10059000B48BA38B49873B832C839A83898378947C
:1005A0000E94F30ED8011F966D937D938D939C93BB
:1005B000529729960FB6F894DEBF0FBECDBFDF91DC
:1005C000CF911F910F91FF90EF90DF90CF90089502
:1005D0000F931F93CF93DF938C01EB01DC011196F6
:1005E0008C911197882349F016968D919C911797BD
:1005F00097FD03C060E00E94B80FF801D783C6835F
:100600008181882341F061E08C2F0E94B80F60E067
:100610008C2F0E94F40FFE01E256FF4FE491F0E0B0
:10062000EE0FFF1FE454FF4F85919491D80154962B
:100630009C938E935397FE01E657FF4FE491559696
:10064000EC93DF91CF911F910F910895EF92FF925C
:100650000F931F93CF93DF93EC017B018A011982E3
:1006600018861A8619861F86188A198A1A8AB90165
:100670000E94F300B701CE010E94BB00B801CE0179
:10068000DF91CF911F910F91FF90EF900C94E802B2
:100690007F928F929F92AF92BF92CF92DF92EF9212
:1006A000FF920F931F93CF93DF93FC01828193817D
:1006B0006817790708F053C04A01AA24BB24782C94
:1006C000C32ED42EE52EFF24BC2DA22F8085882397
:1006D00061F0889E40011124792C8C9D60011124C9
:1006E000BD2D829F70011124AF2D9685D385E184A5
:1006F000F2849D1308C0CB01880F991F680F791FE2
:100700006E0D7F1D1CC0660F771F660F771F6E0D65
:100710007F1D052F1127222733277B01E90EF11CAE
:10072000811102C0202F09C090E0809F6001819F4D
:10073000D00C909FD00C11242D2DE70128838385A8
:100740009B01280F311DE90178828485EB01C80FD8
:10075000D11DB8838585FB01E80FF11DA083DF91D2
:10076000CF911F910F91FF90EF90DF90CF90BF90AE
:10077000AF909F908F907F90089523E033E043E007
:1007800050E060E070E08BEA92E00E9448038BEA60
:1007900092E00C942A0120E030E0A90160E070E0D2
:1007A0008BEA92E00E9448038BEA92E00C942A01C3
:1007B000CF92DF92EF92FF92CF93DF9361E081E1DE
:1007C0000E94B80F61E080E10E94B80F61E08FE005
:1007D0000E94B80F61E08EE00E94B80F61E08EE0E9
:1007E0000E94F40F60E08FE00E94F40F60E080E16F
:1007F0000E94F40F60E081E10E94F40F14B88FEFC3
:1008000085B91AB88BB98BEA92E00E94A800C3E0C0
:10081000D0E0C12CD12C7601B60155274427BE2D3E
:10082000AD2D9C2D8827842B952BA62BB72B9C01B7
:10083000AD012C293D294E295F2960E070E08BEA4B
:1008400092E00E9448038BEA92E00E942A0166E04F
:1008500070E080E090E00E94180F8FEFC81AD80A6D
:10086000E80AF80A8EE1C816D104E104F104A1F601
:10087000B60155274427BE2DAD2D9C2D8827842BEE
:10088000952BA62BB72B9C01AD012C293D294E2978
:100890005F2960E070E08BEA92E00E9448038BEAF7
:1008A00092E00E942A0166E070E080E090E00E9401
:1008B000180F81E0C81AD108E108F108C9F621979C
:1008C00009F0A7CF20E030E0A90160E070E08BEAFA
:1008D00092E00E94480340E052EC61E070E08CE856
:1008E00092E0DF91CF91FF90EF90DF90CF900C944A
:1008F000E00B60E081E10E94F40F61E080E10E9482
:10090000F40F61E08FE00E94F40F61E08EE00E943E
:10091000F40F62E070E080E090E00E94180F89B16F
:100920008F3E09F449C050F48F3B09F45FC08F3DFE
:1009300009F44FC08F3709F073C065C08B3F11F1C8
:1009400018F4873F61F16CC08D3F79F08E3F09F05C
:1009500067C089B18F3F19F00E94BD03FACF0E9492
:10096000CB0381E080938202089589B18F3F19F013
:100970000E94BD03FACF0E94CB0381E080938202E4
:1009800082E0089589B18F3F19F00E94BD03FACF2C
:100990000E94CB0381E08093820283E0089589B1B5
:1009A0008F3F19F00E94BD03FACF0E94CB0381E074
:1009B0008093820284E0089589B18F3F19F00E94EC
:1009C000BD03FACF0E94CB0381E08093820285E0D1
:1009D000089589B18F3F19F00E94BD03FACF0E949C
:1009E000CB0381E08093820286E0089589B18F3F36
:1009F00019F00E94BD03FACF0E94CB0381E08093DF
:100A0000820287E0089589B18F3F19F00E94BD03EB
:100A1000FACF0E94CB0381E08093820288E00895A0
:100A200083B18B3D11F118F4873D61F138C08D3DE4
:100A300079F08E3DA1F583B18F3D19F00E94BD0381
:100A4000FACF0E94CB0381E08093820289E008956F
:100A500083B18F3D19F00E94BD03FACF0E94CB03F2
:100A600081E0809382028AE0089583B18F3D19F07E
:100A70000E94BD03FACF0E94CB0381E080938202E3
:100A80008BE0089583B18F3D19F00E94BD03FACF2A
:100A90000E94CB0381E0809382028CE0089561E0A4
:100AA00081E10E94F40F60E080E10E94F40F61E0B8
:100AB0008FE00E94F40F61E08EE00E94F40F62E08C
:100AC00070E080E090E00E94180F89B18F3E09F439
:100AD00050C050F48F3B09F466C08F3D09F456C0F6
:100AE0008F3709F07AC06CC08B3F19F118F4873F3B
:100AF00069F173C08D3F81F08E3F09F06EC089B1FE
:100B00008F3F19F00E94BD03FACF0E94CB0381E012
:100B1000809382028DE0089589B18F3F19F00E9481
:100B2000BD03FACF0E94CB0381E0809382028EE066
:100B3000089589B18F3F19F00E94BD03FACF0E943A
:100B4000CB0381E0809382028FE0089589B18F3FCB
:100B500049F00E94BD0361E070E080E090E00E94F7
:100B6000180FF4CF0E94CB0381E08093820280E1D2
:100B7000089589B18F3F19F00E94BD03FACF0E94FA
:100B8000CB0381E08093820281E1089589B18F3F98
:100B900019F00E94BD03FACF0E94CB0381E080933D
:100BA000820282E1089589B18F3F19F00E94BD034E
:100BB000FACF0E94CB0381E08093820283E1089503
:100BC00089B18F3F19F00E94BD03FACF0E94CB0379
:100BD00081E08093820284E1089583B18B3D11F11D
:100BE00018F4873D61F138C08D3D79F08E3DA1F557
:100BF00083B18F3D19F00E94BD03FACF0E94CB0351
:100C000081E08093820285E1089583B18F3D19F0E0
:100C10000E94BD03FACF0E94CB0381E08093820241
:100C200086E1089583B18F3D19F00E94BD03FACF8C
:100C30000E94CB0381E08093820287E1089583B113
:100C40008F3D19F00E94BD03FACF0E94CB0381E0D3
:100C50008093820288E1089561E081E10E94F40FAF
:100C600061E080E10E94F40F60E08FE00E94F40FE9
:100C700061E08EE00E94F40F62E070E080E090E0BE
:100C80000E94180F89B18F3E09F44AC050F48F3B7F
:100C900009F460C08F3D09F450C08F3709F074C06B
:100CA00066C08B3F19F118F4873F69F16DC08D3F25
:100CB00081F08E3F09F068C089B18F3F19F00E9422
:100CC000BD03FACF0E94CB0381E08093820289E1C9
:100CD000089589B18F3F19F00E94BD03FACF0E9499
:100CE000CB0381E0809382028AE1089589B18F3F2E
:100CF00019F00E94BD03FACF0E94CB0381E08093DC
:100D000082028BE1089589B18F3F19F00E94BD03E3
:100D1000FACF0E94CB0381E0809382028CE1089598
:100D200089B18F3F19F00E94BD03FACF0E94CB0317
:100D300081E0809382028DE1089589B18F3F19F09F
:100D40000E94BD03FACF0E94CB0381E08093820210
:100D50008EE1089589B18F3F19F00E94BD03FACF4B
:100D60000E94CB0381E0809382028FE1089589B1D4
:100D70008F3F19F00E94BD03FACF0E94CB0381E0A0
:100D80008093820280E2089583B18B3D11F118F4C3
:100D9000873D61F138C08D3D79F08E3DA1F583B17D
:100DA0008F3D19F00E94BD03FACF0E94CB0381E072
:100DB0008093820281E2089583B18F3D19F00E94F1
:100DC000BD03FACF0E94CB0381E08093820282E2CE
:100DD000089583B18F3D19F00E94BD03FACF0E94A0
:100DE000CB0381E08093820283E2089583B18F3D3B
:100DF00019F00E94BD03FACF0E94CB0381E08093DB
:100E0000820284E2089561E081E10E94F40F61E0D2
:100E100080E10E94F40F61E08FE00E94F40F60E037
:100E20008EE00E94F40F62E070E080E090E00E94AB
:100E3000180F89B18F3E09F44AC050F48F3B09F472
:100E400060C08F3D09F450C08F3709F074C066C090
:100E50008B3F19F118F4873F69F16DC08D3F81F028
:100E60008E3F09F068C089B18F3F19F00E94BD0321
:100E7000FACF0E94CB0381E08093820285E208953D
:100E800089B18F3F19F00E94BD03FACF0E94CB03B6
:100E900081E08093820286E2089589B18F3F19F044
:100EA0000E94BD03FACF0E94CB0381E080938202AF
:100EB00087E2089589B18F3F19F00E94BD03FACFF0
:100EC0000E94CB0381E08093820288E2089589B179
:100ED0008F3F19F00E94BD03FACF0E94CB0381E03F
:100EE0008093820289E2089589B18F3F19F00E94B0
:100EF000BD03FACF0E94CB0381E0809382028AE295
:100F0000089589B18F3F19F00E94BD03FACF0E9466
:100F1000CB0381E0809382028BE2089589B18F3FF9
:100F200019F00E94BD03FACF0E94CB0381E08093A9
:100F300082028CE2089583B18B3D11F118F4873D54
:100F400061F138C08D3D79F08E3DA1F583B18F3DC3
:100F500019F00E94BD03FACF0E94CB0381E0809379
:100F600082028DE2089583B18F3D19F00E94BD0386
:100F7000FACF0E94CB0381E0809382028EE2089533
:100F800083B18F3D19F00E94BD03FACF0E94CB03BD
:100F900081E0809382028FE2089583B18F3D19F042
:100FA0000E94BD03FACF0E94CB0381E080938202AE
:100FB00080E30895109282028FEF089522E530E0D9
:100FC0004DE050E061E070E08BEA92E00E94260381
:100FD00020E043E162E18CE892E00C94B50B8CE8F0
:100FE00092E00E945C0B8BEA92E00C949500CF9308
:100FF000DF9380918202813009F048C080918302A2
:1010000090E0019727E0289FF001299FF00D11241F
:10101000EA5FFE4F8091800290918102E80FF91FF4
:101020006081C62FD0E0C45BD109C430D10568F41B
:101030006BE18CE892E00E94220A6BE58CE892E07A
:101040000E94220ACA5ADD4F68818CE892E00E9411
:10105000220A80918002909181029C012D7F213093
:10106000310511F0059781F41092810210928002EF
:1010700010928B0210928A021092870210928602BE
:10108000109289021092880210928202DF91CF9111
:1010900008951C9964C010928702109286021092E3
:1010A00089021092880210928502109284021C9983
:1010B00007C061E070E080E090E00E94180FF7CF79
:1010C00080918A0290918B02892BF9F468EC70E090
:1010D00080E090E00E94180F1C990CC01C9907C07A
:1010E00061E070E080E090E00E94180FF7CF82E0AE
:1010F00090E002C081E090E090938B0280938A029E
:1011000090938102809380022AC068EC70E080E0B6
:1011100090E00E94180F1C990FC01C9907C061E055
:1011200070E080E090E00E94180FF7CF80918A0273
:1011300090918B02029749F41092810210928002E2
:1011400010928B0210928A020AC082E090E0909383
:1011500081028093800290938B0280938A021F9970
:101160006EC010928B0210928A0210928902109225
:10117000880210928502109284021F9907C061E0D4
:1011800070E080E090E00E94180FF7CF8091860217
:1011900090918702892B39F568EC70E080E090E04F
:1011A0000E94180F1F9912C01F9907C061E070E0DC
:1011B00080E090E00E94180FF7CF82E090E09093DB
:1011C00087028093860284E090E008C081E090E08E
:1011D000909387028093860283E090E0909381024F
:1011E000809380022CC068EC70E080E090E00E9468
:1011F000180F1F990FC01F9907C061E070E080E0D1
:1012000090E00E94180FF7CF80918602909187029C
:10121000029749F410928102109280021092870284
:10122000109286020CC084E090E09093810280933B
:10123000800282E090E090938702809386021E995C
:101240006EC0109287021092860210928B0210924A
:101250008A0210928502109284021E9907C061E0F2
:1012600070E080E090E00E94180FF7CF8091880234
:1012700090918902892B39F568EC70E080E090E06C
:101280000E94180F1E9912C01E9907C061E070E0FD
:1012900080E090E00E94180FF7CF82E090E09093FA
:1012A00089028093880286E090E008C081E090E0A7
:1012B000909389028093880285E090E09093810268
:1012C000809380022CC068EC70E080E090E00E9487
:1012D000180F1E990FC01E9907C061E070E080E0F2
:1012E00090E00E94180FF7CF8091880290918902B8
:1012F000029749F4109281021092800210928902A2
:10130000109288020CC086E090E090938102809356
:10131000800282E090E09093890280938802E091BD
:101320008002F0918102E730F10508F049C0EC5CE1
:10133000FF4F0C948D10809184029091850266E09D
:1013400070E00E943810CB0162E070E00E9438101B
:10135000019721F420E030E0A9012CC020E030E02A
:1013600045E050E027C0809184029091850266E0BC
:1013700070E00E943810CB0162E070E00E943810EB
:10138000019741F320E035E040E050E013C0809148
:1013900084029091850266E070E00E943810CB01D3
:1013A00062E070E00E9438100197A1F225E030E081
:1013B00040E050E060E070E08BEA92E00E94480379
:1013C0008BEA92E00E942A0180918202811105C07D
:1013D0000E9479048093830202C00E94F7078091E3
:1013E00084029091850201969093850280938402F5
:1013F0006AE070E080E090E00C94180F80E090E0EC
:101400000895209103033091040328173907B9F494
:101410009091C1028091C202981789F0E091C102B7
:10142000F0E0ED53FD4F80812091C10230E02F5F4D
:101430003F4F2F7333272093C10290E008958FEF21
:101440009FEF08951F93CF93DF93DC015C968D91FE
:101450009C915D97009739F421E030E013963C931E
:101460002E9312973BC05196ED91FC915297509656
:101470002C915097322F30951FB75E964C915E9706
:10148000742F727041FD6095F8944081772311F0BC
:10149000422B01C043234083EC012197F1F748E040
:1014A000508160FF02C0522B01C053235083EC01D6
:1014B0002197F1F76695415099F78081772319F0CC
:1014C0008323808302C0282B20831FBF5C968D91CD
:1014D0009C915D970197F1F781E090E0DF91CF91CA
:1014E0001F91089508952091030330910403281754
:1014F000390771F49091C1028091C202981741F0AE
:10150000E091C102F0E0ED53FD4F808190E008953D
:101510008FEF9FEF08952091030330910403281764
:10152000390771F48091C2022091C10290E0805C81
:101530009F4F821B910960E470E00E94381008956B
:1015400080E090E00895E0910303F0910403E81730
:10155000F90769F4A389B4899C91858980958923C9
:101560008C93109204031092030381E0089580E0AD
:101570000895CF93DF93EC018A8D9B8D892BF1F039
:101580008091030390910403C817D907B9F000971D
:1015900011F00E94A30A8E8D8E7F8E8F1092C20250
:1015A0001092C102D0930403C0930303EB89FC891A
:1015B00090818D89892B808381E001C080E0DF915B
:1015C000CF9108951F920F920FB60F9211242F936F
:1015D0003F934F935F936F937F938F939F93AF93BB
:1015E000BF93EF93FF93E0910303F09104033097CF
:1015F00009F451C0968DA685B785858591FF04C0F5
:101600009C91892329F447C09C91892309F043C008
:10161000A389B4899C918589809589238C93868937
:1016200097890197F1F7608D718DA685B7855585EE
:1016300038E020E0CB010197F1F7822F90E09595FB
:101640008795282F4C91452309F02068315091F758
:10165000868D81FD20958091C20290E001968F7366
:1016600099273091C102381749F0A091C202B0E029
:10167000AD53BD4F2C938093C20203C0868D816011
:10168000868F828D938D0197F1F7A389B4899C9100
:101690008589892B8C93FF91EF91BF91AF919F9199
:1016A0008F917F916F915F914F913F912F910F900B
:1016B0000FBE0F901F9018952FE532E0FC0131838B
:1016C00020830C94A30A1F93CF93DF93EC01162F72
:1016D0006E8D6695617081E06827812F0E94F40FFE
:1016E00061E0812F0E94B80F812F90E0FC01E65746
:1016F000FF4FE491E88BFC01E256FF4FE491F0E0EC
:10170000EE0FFF1FE454FF4F859194919A8B898BC4
:10171000DF91CF911F9108951F93CF93DF93EC0139
:10172000162F60E0812F0E94B80F8E8D81FD04C0BE
:1017300061E0812F0E94F40F1C87812F90E0FC0153
:10174000E657FF4FE491ED87FC01E256FF4FE4912D
:10175000F0E0EE0FFF1FEE54FF4F859194919F87AD
:101760008E87DF91CF911F9108951F93CF93DF93C1
:10177000EC01162F1B821A8288EE93E0A0E0B0E005
:101780008C839D83AE83BF838FE592E099838883AA
:101790001F8A1E8A198E188E1B8E1A8E1D8E1C8E05
:1017A0008E8D8E7F20FB81F98E8F642FCE010E945B
:1017B000630B612FCE01DF91CF911F910C948C0BA5
:1017C000CF93DF93EC019A01AB011B8E1A8E198E19
:1017D000188E1F8A1E8A60E874E88EE190E00E94ED
:1017E0006E10F9012430310518F0C901039702C0C9
:1017F00081E090E09D8F8C8F6C85663108F069C028
:10180000C901969587958431910510F0439702C0E0
:1018100081E090E09F8B8E8B369718F0C901059779
:1018200002C081E090E0998F888FC901880F991FCD
:10183000280F391F36952795369527952D30310578
:1018400018F02C50310902C021E030E03B8F2A8F84
:1018500090916800683050F021E06E3008F420E08C
:1018600081E001C0880F2A95EAF701C084E0892B46
:10187000809368009C85983038F09E3040F0963117
:1018800048F020E030E008C02DE630E005C02BE64F
:1018900030E002C02CE630E03C8B2B8B983030F4EB
:1018A00081E001C0880F9A95EAF70EC0292F30E039
:1018B0009E3018F42850310902C02E50310981E0C1
:1018C00001C0880F2A95EAF78D8B8C8D9D8D01972D
:1018D000F1F7CE01DF91CF910C94B90A4091270323
:1018E000262F30E0240F311D21323105DCF4209108
:1018F00072032430C9F4FC0180E090E0861758F4AC
:10190000309127032191DC01A75DBC4FA30FB11DCE
:101910002C930196F3CF80912703680F60932703E0
:1019200080E0089581E0089582E0089585ED809338
:10193000BC008091BC0084FDFCCF1092720308951E
:1019400085EC8093BC001092720308951F920F9251
:101950000FB60F9211242F933F934F935F936F9382
:101960007F938F939F93AF93BF93EF93FF93809158
:10197000B900887F803609F49EC078F5883209F472
:101980005DC090F4803109F456C038F4882309F41E
:10199000F5C0883009F44FC0F5C0883109F44EC055
:1019A000803209F45FC0EEC0803409F46AC058F494
:1019B000803309F457C0883309F0E4C080930503ED
:1019C0000E94A00CDFC0803509F44FC0883509F4AF
:1019D0005DC0883409F0D6C0D3C0883909F4C4C0CA
:1019E000A8F4883709F467C038F4883609F463C06E
:1019F000803709F460C0C6C0883809F4B5C08039A2
:101A000009F45FC0803809F0BDC05BC0803B09F4B9
:101A100083C038F4803A09F466C0883A09F47CC07F
:101A2000B1C0803C09F4A4C0883C09F4A1C0883B43
:101A300009F487C0A7C08091710310C090914A0338
:101A400080914903981770F5E0914A0381E08E0F69
:101A500080934A03F0E0E55BFC4F80818093BB00FC
:101A600085EC83C0809305038BC0E0914A0381E03D
:101A70008E0F80934A038091BB00F0E0E55BFC4F42
:101A8000808390914A03809149036BC0E0914A039F
:101A900081E08E0F80934A038091BB00F0E0E55B0C
:101AA000FC4F80838091700381116AC081E0809334
:101AB0006F0384EA5EC083E0809372031092060392
:101AC000CFCF80910603803208F04EC0E09106032C
:101AD00081E08E0F809306038091BB00F0E0E95F08
:101AE000FC4F8083BDCF0E94A00C80910603803202
:101AF00030F4E0910603F0E0E95FFC4F1082609162
:101B0000060370E0E0916B03F0916C0387E093E0D3
:101B100009951092060336C084E0809372031092F8
:101B2000280310922703E0916D03F0916E0309954D
:101B300080912703811105C081E0809327031092D3
:101B40002903E091280381E08E0F80932803F0E0C1
:101B5000E75DFC4F80818093BB00909128038091CA
:101B60002703981708F47CCF85E88093BC000AC04F
:101B700085EC8093BC001092720304C010920503A0
:101B80000E94960CFF91EF91BF91AF919F918F9121
:101B90007F916F915F914F913F912F910F900FBE69
:101BA0000F901F9018958091A20390E02091A303BD
:101BB000821B910908959091A3038091A203981725
:101BC00050F4E92FF0E0EC55FC4F208130E09F5FAE
:101BD0009093A30302C02FEF3FEFC9010895E09156
:101BE000A3038091A203E81730F4F0E0EC55FC4F1A
:101BF000808190E008958FEF9FEF08950895CF9230
:101C0000DF92EF92FF920F931F93CF93DF937C01AC
:101C1000CB018A0120917F03222389F0EB016B0124
:101C2000C40ED51ECC15DD0569F06991D701ED9183
:101C3000FC910190F081E02DC7010995F3CF642F4D
:101C40000E946E0CC801DF91CF911F910F91FF9000
:101C5000EF90DF90CF900895CF93DF931F92CDB791
:101C6000DEB7698320917F032223D1F02091800386
:101C7000203240F021E030E0FC013383228380E019
:101C800090E015C080918103E82FF0E0EE57FC4F03
:101C9000998190838F5F809381038093800305C037
:101CA00061E0CE0101960E946E0C81E090E00F9001
:101CB000DF91CF910895FC011382128288EE93E0A8
:101CC000A0E0B0E084839583A683B78381E792E0A8
:101CD00091838083089583E793E00C945B0E0895CD
:101CE0000E94540F0E946F0E0E94D803C0E0D0E003
:101CF0000E9449082097E1F30E940000F9CFCF929B
:101D0000DF92EF92FF920F931F93CF93DF936C01BB
:101D10007A018B01C0E0D0E0CE15DF0581F0D8015B
:101D20006D918D01D601ED91FC910190F081E02D36
:101D3000C6010995892B11F02196EECF7E01C701CE
:101D4000DF91CF911F910F91FF90EF90DF90CF9097
:101D500008951F920F920FB60F9211242F933F9365
:101D60008F939F93AF93BF938091C5039091C603C8
:101D7000A091C703B091C8033091C40326E0230F9C
:101D80002D3720F40296A11DB11D05C029E8230FAF
:101D90000396A11DB11D2093C4038093C5039093A6
:101DA000C603A093C703B093C8038091C903909161
:101DB000CA03A091CB03B091CC030196A11DB11D24
:101DC0008093C9039093CA03A093CB03B093CC0331
:101DD000BF91AF919F918F913F912F910F900FBE27
:101DE0000F901F9018953FB7F8948091C903909178
:101DF000CA03A091CB03B091CC0326B5A89B05C024
:101E00002F3F19F00196A11DB11D3FBFBA2FA92F79
:101E1000982F8827820F911DA11DB11DBC01CD01F6
:101E200043E0660F771F881F991F4A95D1F70895E1
:101E30008F929F92AF92BF92CF92DF92EF92FF92DA
:101E40006B017C010E94F30E4B015C01C114D104B3
:101E5000E104F10401F10E9423100E94F30EDC0161
:101E6000CB0188199909AA09BB09883E9340A105AD
:101E7000B10560F321E0C21AD108E108F10888EE4B
:101E8000880E83E0981EA11CB11CC114D104E1048A
:101E9000F10419F7DBCFFF90EF90DF90CF90BF9068
:101EA000AF909F908F900895789484B5826084BDA0
:101EB00084B5816084BD85B5826085BD85B581604E
:101EC00085BDEEE6F0E0808181608083E1E8F0E0AE
:101ED0001082808182608083808181608083E0E8DD
:101EE000F0E0808181608083E1EBF0E080818460BC
:101EF0008083E0EBF0E0808181608083EAE7F0E0BE
:101F000080818460808380818260808380818E7FF5
:101F100080838081806880831092C100089583301F
:101F200081F028F4813099F08230A1F00895873053
:101F3000A9F08830B9F08430D1F4809180008F7D91
:101F400003C0809180008F7780938000089584B5CE
:101F50008F7702C084B58F7D84BD08958091B000D5
:101F60008F7703C08091B0008F7D8093B00008957B
:101F7000CF93DF9390E0FC01E657FF4F2491FC01E3
:101F8000E256FF4F8491882361F190E0880F991FFA
:101F9000FC01EA53FF4FC591D491FC01E454FF4F7B
:101FA000A591B491611109C09FB7F89488812095DB
:101FB00082238883EC912E230BC0623061F49FB79B
:101FC000F8948881322F309583238883EC912E2BCF
:101FD0002C939FBF06C08FB7F894E8812E2B2883DF
:101FE0008FBFDF91CF9108951F93CF93DF93282F59
:101FF00030E0F901EA58FF4F8491F901E657FF4FAD
:10200000D491F901E256FF4FC491CC23C1F0162FB1
:1020100081110E948F0FEC2FF0E0EE0FFF1FE454B0
:10202000FF4FA591B4919FB7F894111104C08C9102
:10203000D095D82302C0EC91DE2BDC939FBFDF91BB
:10204000CF911F9108950895AA1BBB1B51E107C0B2
:10205000AA1FBB1FA617B70710F0A61BB70B881F38
:10206000991F5A95A9F780959095BC01CD010895C7
:1020700097FB072E16F4009407D077FD09D00E9435
:10208000241007FC05D03EF4909581959F4F08954C
:10209000709561957F4F0895A1E21A2EAA1BBB1B74
:1020A000FD010DC0AA1FBB1FEE1FFF1FA217B30724
:1020B000E407F50720F0A21BB30BE40BF50B661F3A
:1020C000771F881F991F1A9469F7609570958095FE
:1020D00090959B01AC01BD01CF010895052E97FBA2
:1020E0001EF400940E94851057FD07D00E944C10EA
:1020F00007FC03D04EF40C94851050954095309514
:1021000021953F4F4F4F5F4F089590958095709563
:1021100061957F4F8F4F9F4F0895EE0FFF1F0590E2
:10212000F491E02D09940F931F93CF93DF938230A6
:10213000910510F482E090E0E091CF03F091D0039C
:1021400020E030E0A0E0B0E0309719F1408151810B
:102150000281138148175907C8F08417950769F45D
:10216000109731F012960C93129713961C9327C078
:102170000093CF031093D00322C02115310519F02D
:102180004217530718F49A01BD01EF01DF01F8016E
:10219000DBCF21153105F9F0281B390B243031052F
:1021A00080F48A819B816115710521F0FB01938385
:1021B000828304C09093D0038093CF03FE013296B4
:1021C00044C0FE01E20FF31F819391932250310925
:1021D000398328833AC02091CD033091CE03232B3D
:1021E00041F420910201309103013093CE032093FA
:1021F000CD0320910001309101012115310541F4F9
:102200002DB73EB74091040150910501241B350BB9
:10221000E091CD03F091CE03E217F307A0F42E1B5B
:102220003F0B2817390778F0AC014E5F5F4F24173A
:10223000350748F04E0F5F1F5093CE034093CD03F8
:102240008193919302C0E0E0F0E0CF01DF91CF9164
:102250001F910F910895CF93DF93009709F481C0E8
:10226000FC01329713821282A091CF03B091D00368
:10227000109781F420813181820F931F2091CD032B
:102280003091CE032817390751F5F093CE03E09330
:10229000CD0367C0ED0120E030E0CE17DF0740F44A
:1022A0004A815B819E0141155105F1F0EA01F5CFAC
:1022B000D383C28340815181840F951FC817D907EA
:1022C00059F488819981840F951F029691838083A8
:1022D0008A819B81938382832115310529F4F093B0
:1022E000D003E093CF033DC0E901FB83EA8349912A
:1022F0005991C40FD51FEC17FD0761F480819181BE
:10230000840F951F0296E9019983888382819381C6
:102310009B838A83E0E0F0E012968D919C91139765
:10232000009719F0FD01DC01F7CF8D919C91119779
:102330009D012E5F3F4F820F931F2091CD0330915F
:10234000CE032817390769F4309729F41092D00387
:102350001092CF0302C013821282B093CE03A093D7
:10236000CD03DF91CF910895DC0101C06D93415001
:102370005040E0F7089510E0CAE6D0E004C0FE0146
:102380000E948D102196CB36D107C9F7F894FFCF64
:102390000000D10320001B1B1B1B1B80803131312F
:1023A00021218181323232404082823333332323F0
:1023B0008383343434242484843535352525858538
:1023C0003636365E5E868637373726268787383834
:1023D000382A2A888839393928288989303030299B
:1023E000298A8A087F7F08088B8B09090909098CCB
:1023F0008C7151517B7B118D7757577D7D178E6581
:1024000045455B5B058F7252525D5D12907454546A
:102410002F2F14917959595C5C19927555557C7C14
:1024200015936949497E7E09946F4F4F27270F9571
:102430007050502222109600000000000000B4B43A
:10244000B4B4B49898B5B5B5B5B599996141413B67
:102450003B019A7353533A3A139B644444606004BB
:102460009C6646462B2B069D6747472D2D079E6889
:1024700048485F5F089F6A4A4A3D3D0AA06B4B4B44
:102480003F3F0BA16C4C4C00000CA20D0D0D0D0D2F
:10249000A3A3B6B6B6B6B6A4A4B7B7B7B7B7A5A543
:1024A0007A5A5A00001AA6785858000018A76343B1
:1024B00043000003A8765656000016A96242420067
:1024C0000002AA6E4E4E00000EAB6D4D4D00000D89
:1024D000AC2C2C2C3C3CADAD2E2E2E3E3EAEAE2078
:1024E00020202020AFAF44414243000000000022E2
:1024F0000A7F0EFE09720A8B0A010A730A000000A5
:10250000002C0EFF0DFE09FE0DD30DDB0DEF0D00AF
:00000001FF
