:1000000044C068C067C066C065C064C063C062C0E9
:1000100061C0E0CB5FC05EC05DC05CC05BC05AC069
:1000200059C0E8C957C066C958C968C96CC978C9F8
:100030007CC988C900000008000201000003040711
:1000400000000000000000000102040810204080B1
:100050000102040810200102040810200404040412
:100060000404040402020202020203030303030362
:1000700000000000380035003200000000003700AA
:1000800034003100C807B20BD60711241FBECFE5DC
:10009000D4E0DEBFCDBF11E0A0E6B0E0ECE9FDE1C9
:1000A00002C005900D92A03EB107D9F722E0A0EE64
:1000B000B1E001C01D92A33EB207E1F710E0C4E435
:1000C000D0E003C02197FE012FDDC234D107D1F764
:1000D0004DDB58CE95CFCF93DF93EC0189859A8580
:1000E000C1DD8E819F8197FD04C060E0DF91CF91DB
:1000F0004BCCDF91CF910895CF93DF93EC018E81AC
:100100009F8197FD05C061E03FDC60E08E8178DC77
:1001100081E08983DF91CF910895EF92FF920F9351
:100120001F93CF93DF93EC017B0189859A859ADD3C
:100130009E858B85981719F084E090E002C083E0DB
:1001400090E08E9D80018F9D100D9E9D100D1124BD
:100150001D830C83C801EEDC9A878987009739F0EC
:10016000A80160E070E007DEFB82EA8204C01D8225
:100170001C821B821A82DF91CF911F910F91FF90F9
:10018000EF900895FC0131E096858385981330E067
:10019000CB0126E0969587952A95E1F7282F2370C5
:1001A0002687CB0144E0969587954A95E1F78370C1
:1001B0008387AB015695479556954795437044877D
:1001C000962F9370958791E06F3F710511F008F0BD
:1001D00090E0908341855285452B49F091E02813AA
:1001E00090E0391721F062817381CF0196CF089595
:1001F000CF92DF92EF92FF920F931F93CF93DF93F3
:10020000CDB7DEB729970FB6F894DEBF0FBECDBFCE
:100210008C01DC0119968D919C911A97892B09F418
:1002200092C1F801C784D088E188F2881DDB6C1583
:100230007D058E059F0540F417DBD8011F966D9351
:100240007D938D939C9352970FDBF801C784D088E0
:10025000E188F288DC01CB018C199D09AE09BF0948
:100260008C329140A105B105E0F2F894D8011496C2
:100270008D919C9115979A83898319960D90BC91C5
:10028000A02D7D01EFEFEE1AFE0A8C918987D8012F
:100290008C9153960D90BC91A02D882309F41AC11E
:1002A0001D82A233B10509F059C092B3F8018589C6
:1002B000982B988792B3809589238F838F818E8323
:1002C000898587FF02C088858E8358856F8149851F
:1002D0003E812D8189819A81D70152BB262F32BB65
:1002E00000C046FD252F62BB00C052BB362F22BB8B
:1002F00000C045FD352F62BB00C052BB262F32BB6C
:1003000000C044FD252F62BB00C052BB362F22BB6C
:1003100000C043FD352F62BB00C052BB262F32BB4D
:1003200000C042FD252F62BB00C052BB362F22BB4E
:1003300000C041FD352F62BB00C052BB262F32BB2F
:1003400000C040FD252F62BB019752BB362F22BB58
:100350004D9147FD352F62BB01F6B8C0A833B105FA
:1003600009F059C098B3F8018589982B988798B3FC
:10037000809589238F838F818E83898587FF02C033
:1003800088858E8358856F8149853E812D8189813D
:100390009A81D70158BB262F38BB00C046FD252FB8
:1003A00068BB00C058BB362F28BB00C045FD352FA9
:1003B00068BB00C058BB262F38BB00C044FD252FAA
:1003C00068BB00C058BB362F28BB00C043FD352F8B
:1003D00068BB00C058BB262F38BB00C042FD252F8C
:1003E00068BB00C058BB362F28BB00C041FD352F6D
:1003F00068BB00C058BB262F38BB00C040FD252F6E
:1004000068BB019758BB362F28BB4D9147FD352F50
:1004100068BB01F65BC0D59709F08CC095B3F801B5
:100420008589982B988795B3809589238F838F81B1
:100430008E83898587FF02C088858E8358856F816A
:1004400049853E812D8189819A81D70155BB262F0F
:1004500035BB00C046FD252F65BB00C055BB362F00
:1004600025BB00C045FD352F65BB00C055BB262F01
:1004700035BB00C044FD252F65BB00C055BB362FE2
:1004800025BB00C043FD352F65BB00C055BB262FE3
:1004900035BB00C042FD252F65BB00C055BB362FC4
:1004A00025BB00C041FD352F65BB00C055BB262FC5
:1004B00035BB00C040FD252F65BB019755BB362FCE
:1004C00025BB4D9147FD352F65BB01F649873E831E
:1004D0002D832EC09C91F8018589982B98879C913B
:1004E000809589238F838F818C8388E08B835885C7
:1004F0006F8149853B812C8189819A81F7015C93C9
:1005000047FD252F2C93262F3A9531F0441F6C93ED
:1005100000C000C000C0F3CF6C93000038E04191F0
:10052000019769F7F801B48BA38B49873B832C8330
:100530009A838983789498D9D8011F966D937D9377
:100540008D939C93529729960FB6F894DEBF0FBEF9
:10055000CDBFDF91CF911F910F91FF90EF90DF9072
:10056000CF9008950F931F93CF93DF938C01EB01EE
:10057000DC0111968C911197882341F016968D918C
:100580009C91179797FD02C060E0FED9F801D783D0
:10059000C6838181882331F061E08C2FF5D960E03A
:1005A0008C2F2EDAFE01E45AFF4FE491F0E0EE0FBB
:1005B000FF1FE059FF4F85919491D80154969C9369
:1005C0008E935397FE01E85BFF4FE4915596EC93B1
:1005D000DF91CF911F910F910895EF92FF920F93AA
:1005E0001F93CF93DF93EC017B018A011982188658
:1005F0001A8619861F86188A198A1A8AB901C2DDD5
:10060000B701CE018ADDB801CE01DF91CF911F91F4
:100610000F91FF90EF90A6CF7F928F929F92AF9213
:10062000BF92CF92DF92EF92FF920F931F93CF93DF
:10063000DF93FC01828193816817790708F053C02A
:100640004A01AA24BB24782CC32ED42EE52EFF24E5
:10065000BC2DA22F8085882361F0889E4001112443
:10066000792C8C9D60011124BD2D829F7001112475
:10067000AF2D9685D385E184F2849D1308C0CB010C
:10068000880F991F680F791F6E0D7F1D1CC0660FA4
:10069000771F660F771F6E0D7F1D052F11272227ED
:1006A00033277B01E90EF11C811102C0202F09C004
:1006B00090E0809F6001819FD00C909FD00C11240E
:1006C0002D2DE701288383859B01280F311DE9012A
:1006D00078828485EB01C80FD11DB8838585FB0125
:1006E000E80FF11DA083DF91CF911F910F91FF9033
:1006F000EF90DF90CF90BF90AF909F908F907F90C2
:10070000089580E090E008951F93CF93DF93DC017C
:1007100052968D919C915397009739F421E030E0E7
:1007200013963C932E9312973BC01D96ED91FC912E
:100730001E971C962C911C97322F30951FB75496FC
:100740004C915497742F727041FD6095F8944081DC
:10075000772311F0422B01C043234083EC01219702
:10076000F1F748E0508160FF02C0522B01C05323D3
:100770005083EC012197F1F76695415099F78081FC
:10078000772319F08323808302C0282B20831FBF87
:1007900052968D919C9153970197F1F781E090E0EB
:1007A000DF91CF911F910895089580E090E0089522
:1007B0008FEF9FEF089508951F93CF93DF93EC0180
:1007C000162F6C896695617081E06827812F18D992
:1007D00061E0812FD9D8812F90E0FC01E85BFF4FC9
:1007E000E491EC87FC01E45AFF4FE491F0E0EE0F56
:1007F000FF1FE059FF4F859194919E878D87DF9170
:10080000CF911F910895FC011382128288EE93E02C
:10081000A0E0B0E084839583A683B7838AEB91E060
:1008200091838083138A128A848940FB81F9848BA7
:10083000CF01C2CFCF93DF93EC019A01AB0160E807
:1008400074E88EE190E054D92430310518F023503B
:10085000310902C021E030E03B8B2A8BDF91CF9140
:10086000089523E033E043E050E060E070E081E091
:1008700092E0D2DE81E092E0BBCC20E030E0A90142
:1008800060E070E081E092E0C7DE81E092E0B0CC11
:10089000CF92DF92EF92FF92CF93DF9361E081E1FD
:1008A00073D861E080E170D861E08FE06DD861E0DD
:1008B0008EE06AD861E08EE0A3D860E08FE0A0D837
:1008C00060E080E19DD860E081E19AD817BA8FEFAF
:1008D00088BB11BA82BB81E092E00EDCC3E0D0E0BD
:1008E000C12CD12C7601B60155274427BE2DAD2D44
:1008F0009C2D8827842B952BA62BB72B9C01AD0113
:100900002C293D294E295F2960E070E081E092E0CA
:1009100083DE81E092E06CDC66E070E080E090E0F5
:10092000C9D78FEFC81AD80AE80AF80A8EE1C816A4
:10093000D104E104F104B9F6B60155274427BE2DD0
:10094000AD2D9C2D8827842B952BA62BB72B9C0196
:10095000AD012C293D294E295F2960E070E081E03E
:1009600092E05ADE81E092E043DC66E070E080E0F5
:1009700090E0A0D781E0C81AD108E108F108E1F6BB
:10098000219709F0ADCF20E030E0A90160E070E0F0
:1009900081E092E041DE40E052EC61E070E08CEEFC
:1009A00091E0DF91CF91FF90EF90DF90CF9042CF19
:1009B00060E081E125D861E080E122D861E08FE04C
:1009C0001FD861E08EE01CD862E070E080E090E02B
:1009D00071D780B38F3E09F441C050F48F3B09F4C6
:1009E00053C08F3D09F445C08F3709F063C057C02D
:1009F0008B3FF1F018F4873F31F15CC08D3F69F017
:100A00008E3F09F057C080B38F3F11F02ADFFBCF34
:100A100034DF81E08093E201089580B38F3F11F0CD
:100A200020DFFBCF2ADF81E08093E20182E008959E
:100A300080B38F3F11F015DFFBCF1FDF81E0809384
:100A4000E20183E0089580B38F3F11F00ADFFBCF0E
:100A500014DF81E08093E20184E0089580B38F3F4A
:100A600011F0FFDEFBCF09DF81E08093E20185E03A
:100A7000089580B38F3F11F0F4DEFBCFFEDE81E0FE
:100A80008093E20186E0089580B38F3F11F0E9DEA4
:100A9000FBCFF3DE81E08093E20187E0089580B32D
:100AA0008F3F11F0DEDEFBCFE8DE81E08093E201D4
:100AB00088E0089586B38B3DF1F018F4873D31F15D
:100AC00030C08D3D69F08E3D61F586B38F3D11F0EC
:100AD000C8DEFBCFD2DE81E08093E20189E0089599
:100AE00086B38F3D11F0BDDEFBCFC7DE81E0809382
:100AF000E2018AE0089586B38F3D11F0B2DEFBCFAC
:100B0000BCDE81E08093E2018BE0089586B38F3DE7
:100B100011F0A7DEFBCFB1DE81E08093E2018CE033
:100B2000089561E081E16CD760E080E169D761E020
:100B30008FE066D761E08EE063D762E070E080E02E
:100B400090E0B8D680B38F3E09F447C050F48F3B95
:100B500009F459C08F3D09F44BC08F3709F069C0C3
:100B60005DC08B3FF9F018F4873F39F162C08D3FCB
:100B700071F08E3F09F05DC080B38F3F11F071DEE0
:100B8000FBCF7BDE81E08093E2018DE0089580B3AE
:100B90008F3F11F066DEFBCF70DE81E08093E201D3
:100BA0008EE0089580B38F3F11F05BDEFBCF65DEF2
:100BB00081E08093E2018FE0089580B38F3F39F0A8
:100BC00050DE61E070E080E090E074D6F6CF55DE54
:100BD00081E08093E20180E1089580B38F3F11F0BE
:100BE00040DEFBCF4ADE81E08093E20181E108959F
:100BF00080B38F3F11F035DEFBCF3FDE81E0809385
:100C0000E20182E1089580B38F3F11F02ADEFBCF2D
:100C100034DE81E08093E20183E1089580B38F3F69
:100C200011F01FDEFBCF29DE81E08093E20184E139
:100C3000089586B38B3DF1F018F4873D31F130C053
:100C40008D3D69F08E3D61F586B38F3D11F009DE73
:100C5000FBCF13DE81E08093E20185E1089586B346
:100C60008F3D11F0FEDDFBCF08DE81E08093E201D5
:100C700086E1089586B38F3D11F0F3DDFBCFFDDDF6
:100C800081E08093E20187E1089586B38F3D11F002
:100C9000E8DDFBCFF2DD81E08093E20188E1089599
:100CA00061E081E1ADD661E080E1AAD660E08FE04D
:100CB000A7D661E08EE0A4D662E070E080E090E02C
:100CC000F9D580B38F3E09F442C050F48F3B09F44C
:100CD00054C08F3D09F446C08F3709F064C058C036
:100CE0008B3FF9F018F4873F39F15DC08D3F71F00B
:100CF0008E3F09F058C080B38F3F11F0B2DDFBCFBB
:100D0000BCDD81E08093E20189E1089580B38F3FEB
:100D100011F0A7DDFBCFB1DD81E08093E2018AE134
:100D2000089580B38F3F11F09CDDFBCFA6DD81E0FD
:100D30008093E2018BE1089580B38F3F11F091DD44
:100D4000FBCF9BDD81E08093E2018CE1089580B3CD
:100D50008F3F11F086DDFBCF90DD81E08093E201D3
:100D60008DE1089580B38F3F11F07BDDFBCF85DDF2
:100D700081E08093E2018EE1089580B38F3F11F00E
:100D800070DDFBCF7ADD81E08093E2018FE1089591
:100D900080B38F3F11F065DDFBCF6FDD81E0809385
:100DA000E20180E2089586B38B3DF1F018F4873DAF
:100DB00031F130C08D3D69F08E3D61F586B38F3DD8
:100DC00011F04FDDFBCF59DD81E08093E20181E23C
:100DD000089586B38F3D11F044DDFBCF4EDD81E0F9
:100DE0008093E20182E2089586B38F3D11F039DDF0
:100DF000FBCF43DD81E08093E20183E2089586B377
:100E00008F3D11F02EDDFBCF38DD81E08093E201D4
:100E100084E2089561E081E1F3D561E080E1F0D5FD
:100E200061E08FE0EDD560E08EE0EAD562E070E051
:100E300080E090E03FD580B38F3E09F442C050F48B
:100E40008F3B09F454C08F3D09F446C08F3709F039
:100E500064C058C08B3FF9F018F4873F39F15DC08A
:100E60008D3F71F08E3F09F058C080B38F3F11F075
:100E7000F8DCFBCF02DD81E08093E20185E208959A
:100E800080B38F3F11F0EDDCFBCFF7DC81E0809386
:100E9000E20186E2089580B38F3F11F0E2DCFBCFE0
:100EA000ECDC81E08093E20187E2089580B38F3F1C
:100EB00011F0D7DCFBCFE1DC81E08093E20188E236
:100EC000089580B38F3F11F0CCDCFBCFD6DC81E0FE
:100ED0008093E20189E2089580B38F3F11F0C1DC75
:100EE000FBCFCBDC81E08093E2018AE2089580B3FE
:100EF0008F3F11F0B6DCFBCFC0DC81E08093E201D4
:100F00008BE2089580B38F3F11F0ABDCFBCFB5DCF3
:100F100081E08093E2018CE2089586B38B3DF1F08D
:100F200018F4873D31F130C08D3D69F08E3D61F59B
:100F300086B38F3D11F095DCFBCF9FDC81E0809381
:100F4000E2018DE2089586B38F3D11F08ADCFBCF7C
:100F500094DC81E08093E2018EE2089586B38F3DB8
:100F600011F07FDCFBCF89DC81E08093E2018FE22E
:100F7000089586B38F3D11F074DCFBCF7EDC81E0F9
:100F80008093E20180E308951092E2018FEF0895CB
:100F900022E530E04DE050E061E070E081E092E079
:100FA0001CDB40E063E18CEE91E02DCC8CEE91E017
:100FB00002DC81E092E08FC8CF93DF938091E20161
:100FC000813009F045C08091E30190E0019727E06E
:100FD000289FF001299FF00D1124EA59FF4F8091BD
:100FE000E0019091E101E80FF91F6081C62FD0E088
:100FF000C45BD109C430D10558F46BE18CEE91E0AB
:1010000083DB6BE58CEE91E07FDBC853DE4F6881BC
:101010008CEE91E079DB8091E0019091E1019C01FF
:101020002D7F2130310511F0059781F41092E101F7
:101030001092E0011092EB011092EA011092E70188
:101040001092E6011092E9011092E8011092E2017B
:10105000DF91CF910895B4995FC01092E70110928B
:10106000E6011092E9011092E8011092E501109258
:10107000E401B49906C061E070E080E090E01AD429
:10108000F8CF8091EA019091EB01892BE9F468ECAB
:1010900070E080E090E00ED4B4990BC0B49906C023
:1010A00061E070E080E090E005D4F8CF82E090E06D
:1010B00002C081E090E09093EB018093EA0190936D
:1010C000E1018093E00128C068EC70E080E090E0EE
:1010D000F1D3B4990EC0B49906C061E070E080E02D
:1010E00090E0E8D3F8CF8091EA019091EB0102976C
:1010F00049F41092E1011092E0011092EB0110927C
:10110000EA010AC082E090E09093E1018093E0015F
:101110009093EB018093EA01B79969C01092EB01BB
:101120001092EA011092E9011092E8011092E50193
:101130001092E401B79906C061E070E080E090E0B1
:10114000B9D3F8CF8091E6019091E701892B29F579
:1011500068EC70E080E090E0ADD3B79911C0B7992A
:1011600006C061E070E080E090E0A4D3F8CF82E0B8
:1011700090E09093E7018093E60184E090E008C05E
:1011800081E090E09093E7018093E60183E090E0B6
:101190009093E1018093E0012AC068EC70E080E068
:1011A00090E088D3B7990EC0B79906C061E070E0AF
:1011B00080E090E07FD3F8CF8091E6019091E70145
:1011C000029749F41092E1011092E0011092E701B8
:1011D0001092E6010CC084E090E09093E1018093CE
:1011E000E00182E090E09093E7018093E601B699F8
:1011F00069C01092E7011092E6011092EB01109283
:10120000EA011092E5011092E401B69906C061E08E
:1012100070E080E090E04ED3F8CF8091E8019091AB
:10122000E901892B29F568EC70E080E090E042D379
:10123000B69911C0B69906C061E070E080E090E018
:1012400039D3F8CF82E090E09093E9018093E801F0
:1012500086E090E008C081E090E09093E9018093FF
:10126000E80185E090E09093E1018093E0012AC0DD
:1012700068EC70E080E090E01DD3B6990EC0B6999E
:1012800006C061E070E080E090E014D3F8CF809178
:10129000E8019091E901029749F41092E10110925E
:1012A000E0011092E9011092E8010CC086E090E0A4
:1012B0009093E1018093E00182E090E09093E90156
:1012C0008093E801E091E001F091E101E730F10560
:1012D00008F041C0ED5EFF4F09948091E4019091C8
:1012E000E50166E070E0CFD3CB0162E070E0CBD3E4
:1012F000019721F420E030E0A90128C020E030E08F
:1013000045E050E023C08091E4019091E50166E062
:1013100070E0B9D3CB0162E070E0B5D3019751F32F
:1013200020E035E040E050E011C08091E401909170
:10133000E50166E070E0A7D3CB0162E070E0A3D3E3
:101340000197C1F225E030E040E050E060E070E05D
:1013500081E092E061D981E092E04AD78091E20198
:10136000811104C025DB8093E30101C025DE80915B
:10137000E4019091E50101969093E5018093E401E9
:101380006AE070E080E090E095C240913902262F3B
:1013900030E0240F311D21323105DCF4209184022C
:1013A0002430C9F4FC0180E090E0861758F43091B5
:1013B00039022191DC01A55CBD4FA30FB11D2C9317
:1013C0000196F3CF80913902680F6093390280E073
:1013D000089581E0089582E0089585ED86BF06B600
:1013E00004FCFDCF10928402089585EC86BF109214
:1013F000840208951F920F920FB60F9211242F931B
:101400003F934F935F936F937F938F939F93AF938C
:10141000BF93EF93FF9381B1887F803609F49AC020
:1014200070F5883209F45CC090F4803109F455C03D
:1014300038F4882309F4ECC0883009F44EC0EBC0BE
:10144000883109F44DC0803209F45DC0E4C08034B5
:1014500009F467C050F4803309F455C0883309F0AB
:10146000DAC080931702C1DFD6C0803509F44EC0C0
:10147000883509F45BC0883409F0CDC0CBC0883909
:1014800009F4BEC0A8F4883709F464C038F488367B
:1014900009F460C0803709F45DC0BDC0883809F424
:1014A000AFC0803909F45CC0803809F0B4C058C0BE
:1014B000803B09F47EC038F4803A09F462C0883A6F
:1014C00009F477C0A8C0803C09F49DC0883C09F4A9
:1014D0009AC0883B09F482C09EC08091830210C0EC
:1014E00090915C0280915B02981758F5E0915C0244
:1014F00081E08E0F80935C02F0E0E35AFD4F808123
:1015000083B985EC7EC08093170284C0E0915C02B1
:1015100081E08E0F80935C0283B1F0E0E35AFD4FCF
:10152000808390915C0280915B0267C0E0915C02D5
:1015300081E08E0F80935C0283B1F0E0E35AFD4FAF
:10154000808380918202811165C081E08093810255
:1015500084EA5AC083E08093840210921802D1CFAB
:1015600080911802803208F04BC0E091180281E0AF
:101570008E0F8093180283B1F0E0E75EFD4F808309
:10158000C0CF33DF80911802803230F4E09118022E
:10159000F0E0E75EFD4F10826091180270E0E0918C
:1015A0007D02F0917E0289E192E009951092180285
:1015B00032C084E08093840210923A021092390281
:1015C000E0917F02F09180020995809139028111AA
:1015D00005C081E08093390210923B02E0913A020B
:1015E00081E08E0F80933A02F0E0E55CFD4F808150
:1015F00083B990913A0280913902981708F481CF0B
:1016000085E886BF08C085EC86BF1092840203C0BF
:1016100010921702E2DEFF91EF91BF91AF919F917F
:101620008F917F916F915F914F913F912F910F908B
:101630000FBE0F901F9018958091B40290E02091FA
:10164000B502821B910908959091B5028091B40270
:10165000981750F4E92FF0E0EA54FD4F208130E074
:101660009F5F9093B50202C02FEF3FEFC90108952D
:10167000E091B5028091B402E81730F4F0E0EA544A
:10168000FD4F808190E008958FEF9FEF08950895BA
:10169000CF92DF92EF92FF920F931F93CF93DF933E
:1016A0007C01CB018A0120919102222389F0EB0178
:1016B0006B01C40ED51ECC15DD0561F06991D70113
:1016C000ED91FC910190F081E02DC7010995F3CFD8
:1016D000642F5BDEC801DF91CF911F910F91FF90C6
:1016E000EF90DF90CF900895CF93DF931F92CDB707
:1016F000DEB76983209191022223D1F020919202DA
:10170000203240F021E030E0FC013383228380E08E
:1017100090E014C080919302E82FF0E0EC56FD4F6A
:10172000998190838F5F809393028093920204C08B
:1017300061E0CE01019629DE81E090E00F90DF911B
:10174000CF910895FC011382128288EE93E0A0E00D
:10175000B0E084839583A683B78381ED91E0918384
:101760008083089585E892E0EDCF0895DCD0FDDF19
:101770008FD8C0E0D0E06FDC2097E9F341D4FBCFF5
:10178000CF92DF92EF92FF920F931F93CF93DF934D
:101790006C017A018B01C0E0D0E0CE15DF0581F04D
:1017A000D8016D918D01D601ED91FC910190F081F0
:1017B000E02DC6010995892B11F02196EECF7E010F
:1017C000C701DF91CF911F910F91FF90EF90DF90B4
:1017D000CF9008951F920F920FB60F9211242F935E
:1017E0003F938F939F93AF93BF938091D702909134
:1017F000D802A091D902B091DA023091D60226E047
:10180000230F2D3720F40296A11DB11D05C029E834
:10181000230F0396A11DB11D2093D6028093D702FA
:101820009093D802A093D902B093DA028091DB02A0
:101830009091DC02A091DD02B091DE020196A11D23
:10184000B11D8093DB029093DC02A093DD02B09384
:10185000DE02BF91AF919F918F913F912F910F9099
:101860000FBE0F901F9018953FB7F8948091DB0240
:101870009091DC02A091DD02B091DE0222B708B6A1
:1018800000FE05C02F3F19F00196A11DB11D3FBFFD
:10189000BA2FA92F982F8827820F911DA11DB11D46
:1018A000BC01CD0143E0660F771F881F991F4A9541
:1018B000D1F708958F929F92AF92BF92CF92DF920D
:1018C000EF92FF926B017C01CFDF4B015C01C114F1
:1018D000D104E104F104F1F0C1D0C6DFDC01CB0199
:1018E00088199909AA09BB09883E9340A105B10549
:1018F00070F321E0C21AD108E108F10888EE880EE1
:1019000083E0981EA11CB11CC114D104E104F104B0
:1019100021F7DDCFFF90EF90DF90CF90BF90AF9099
:101920009F908F900895789483B7826083BF83B728
:10193000816083BF89B7816089BF1EBC8EB582601C
:101940008EBD8EB581608EBD8FB581608FBD85B532
:10195000846085BD85B5806485BD329A319A3098A2
:10196000379A1AB80895843039F0863049F08330B8
:1019700051F48FB58F7702C08FB58F7D8FBD0895DD
:1019800085B58F7D85BD0895CF93DF9390E0FC01F1
:10199000E85BFF4F2491FC01E45AFF4F84918823B8
:1019A00061F190E0880F991FFC01E658FF4FC59147
:1019B000D491FC01E059FF4FA591B491611109C088
:1019C0009FB7F8948881209582238883EC912E23F9
:1019D0000BC0623061F49FB7F8948881322F309544
:1019E00083238883EC912E2B2C939FBF06C08FB747
:1019F000F894E8812E2B28838FBFDF91CF91089533
:101A00001F93CF93DF93282F30E0F901EC5CFF4F59
:101A10008491F901E85BFF4FD491F901E45AFF4F3B
:101A2000C491CC23B9F0162F81119DDFEC2FF0E08B
:101A3000EE0FFF1FE059FF4FA591B4919FB7F894A7
:101A4000111104C08C91D095D82302C0EC91DE2BEB
:101A5000DC939FBFDF91CF911F9108950895AA1B3A
:101A6000BB1B51E107C0AA1FBB1FA617B70710F089
:101A7000A61BB70B881F991F5A95A9F780959095BB
:101A8000BC01CD01089597FB072E16F4009406D0F3
:101A900077FD08D0E4DF07FC05D03EF490958195F2
:101AA0009F4F0895709561957F4F0895A1E21A2E7A
:101AB000AA1BBB1BFD010DC0AA1FBB1FEE1FFF1FF2
:101AC000A217B307E407F50720F0A21BB30BE40B42
:101AD000F50B661F771F881F991F1A9469F7609589
:101AE0007095809590959B01AC01BD01CF01089543
:101AF000052E97FB16F400940FD057FD05D0D6DFC6
:101B000007FC02D046F408C05095409530952195C9
:101B10003F4F4F4F5F4F0895909580957095619519
:101B20007F4F8F4F9F4F0895EE0FFF1F0590F49149
:101B3000E02D09940F931F93CF93DF93823091058B
:101B400010F482E090E0E091E102F091E20220E006
:101B500030E0A0E0B0E0309719F14081518102817E
:101B6000138148175907C8F08417950769F410972F
:101B700031F012960C93129713961C9327C0009382
:101B8000E1021093E20222C02115310519F042173B
:101B9000530718F49A01BD01EF01DF01F801DBCF13
:101BA00021153105F9F0281B390B2430310580F45B
:101BB0008A819B816115710521F0FB0193838283EA
:101BC00004C09093E2028093E102FE01329644C089
:101BD000FE01E20FF31F8193919322503109398363
:101BE00028833AC02091DF023091E002232B41F498
:101BF00020916200309163003093E0022093DF0275
:101C000020916000309161002115310541F42DB71C
:101C10003EB74091640050916500241B350BE09164
:101C2000DF02F091E002E217F307A0F42E1B3F0B56
:101C30002817390778F0AC014E5F5F4F241735073E
:101C400048F04E0F5F1F5093E0024093DF028193F4
:101C5000919302C0E0E0F0E0CF01DF91CF911F91BE
:101C60000F910895CF93DF93009709F481C0FC0191
:101C7000329713821282A091E102B091E202109792
:101C800081F420813181820F931F2091DF023091F6
:101C9000E0022817390751F5F093E002E093DF02E4
:101CA00067C0ED0120E030E0CE17DF0740F44A8145
:101CB0005B819E0141155105F1F0EA01F5CFD38317
:101CC000C28340815181840F951FC817D90759F4E9
:101CD00088819981840F951F0296918380838A81E0
:101CE0009B81938382832115310529F4F093E202CD
:101CF000E093E1023DC0E901FB83EA8349915991F8
:101D0000C40FD51FEC17FD0761F480819181840F0A
:101D1000951F0296E90199838883828193819B8331
:101D20008A83E0E0F0E012968D919C9113970097E2
:101D300019F0FD01DC01F7CF8D919C9111979D0168
:101D40002E5F3F4F820F931F2091DF023091E00200
:101D50002817390769F4309729F41092E20210929B
:101D6000E10202C013821282B093E002A093DF026C
:101D7000DF91CF910895DC0101C06D934150504037
:101D8000E0F7089510E0C4E4D0E003C0FE01CCDE2B
:0C1D90002196C534D107D1F7F894FFCF9D
:101D9C000000E30220001B1B1B1B1B808031313118
:101DAC0021218181323232404082823333332323EA
:101DBC008383343434242484843535352525858532
:101DCC003636365E5E86863737372626878738382E
:101DDC00382A2A8888393939282889893030302995
:101DEC00298A8A087F7F08088B8B09090909098CC5
:101DFC008C7151517B7B118D7757577D7D178E657B
:101E0C0045455B5B058F7252525D5D129074545464
:101E1C002F2F14917959595C5C19927555557C7C0E
:101E2C0015936949497E7E09946F4F4F27270F956B
:101E3C007050502222109600000000000000B4B434
:101E4C00B4B4B49898B5B5B5B5B599996141413B61
:101E5C003B019A7353533A3A139B644444606004B5
:101E6C009C6646462B2B069D6747472D2D079E6883
:101E7C0048485F5F089F6A4A4A3D3D0AA06B4B4B3E
:101E8C003F3F0BA16C4C4C00000CA20D0D0D0D0D29
:101E9C00A3A3B6B6B6B6B6A4A4B7B7B7B7B7A5A53D
:101EAC007A5A5A00001AA6785858000018A76343AB
:101EBC0043000003A8765656000016A96242420061
:101ECC000002AA6E4E4E00000EAB6D4D4D00000D83
:101EDC00AC2C2C2C3C3CADAD2E2E2E3E3EAEAE2072
:101EEC0020202020AFAF000000008403C00B810332
:101EFC00D403D503D803D803444142430000000067
:101F0C0000740B480B8103470B1C0B240B380B0084
:00000001FF
